{
  "contractName": "EqualDistribution",
  "abi": [
    {
      "constant": true,
      "inputs": [
        {
          "name": "",
          "type": "address"
        }
      ],
      "name": "amountRedeemed",
      "outputs": [
        {
          "name": "",
          "type": "uint256"
        }
      ],
      "payable": false,
      "stateMutability": "view",
      "type": "function"
    },
    {
      "constant": true,
      "inputs": [],
      "name": "totalReleased",
      "outputs": [
        {
          "name": "",
          "type": "uint256"
        }
      ],
      "payable": false,
      "stateMutability": "view",
      "type": "function"
    },
    {
      "constant": true,
      "inputs": [
        {
          "name": "",
          "type": "uint256"
        }
      ],
      "name": "beneficiaries",
      "outputs": [
        {
          "name": "",
          "type": "address"
        }
      ],
      "payable": false,
      "stateMutability": "view",
      "type": "function"
    },
    {
      "inputs": [
        {
          "name": "_beneficiaries",
          "type": "address[]"
        }
      ],
      "payable": true,
      "stateMutability": "payable",
      "type": "constructor"
    },
    {
      "payable": true,
      "stateMutability": "payable",
      "type": "fallback"
    },
    {
      "anonymous": false,
      "inputs": [
        {
          "indexed": false,
          "name": "_sender",
          "type": "address"
        },
        {
          "indexed": false,
          "name": "_amount",
          "type": "uint256"
        }
      ],
      "name": "LogPayment",
      "type": "event"
    },
    {
      "anonymous": false,
      "inputs": [
        {
          "indexed": false,
          "name": "_beneficiary",
          "type": "address"
        },
        {
          "indexed": false,
          "name": "_amount",
          "type": "uint256"
        }
      ],
      "name": "LogWithdraw",
      "type": "event"
    },
    {
      "constant": false,
      "inputs": [
        {
          "name": "_contractAddress",
          "type": "address"
        }
      ],
      "name": "getFunds",
      "outputs": [
        {
          "name": "",
          "type": "bool"
        }
      ],
      "payable": false,
      "stateMutability": "nonpayable",
      "type": "function"
    },
    {
      "constant": false,
      "inputs": [],
      "name": "withdraw",
      "outputs": [
        {
          "name": "",
          "type": "bool"
        }
      ],
      "payable": false,
      "stateMutability": "nonpayable",
      "type": "function"
    },
    {
      "constant": true,
      "inputs": [
        {
          "name": "_user",
          "type": "address"
        }
      ],
      "name": "isBeneficiary",
      "outputs": [
        {
          "name": "",
          "type": "bool"
        }
      ],
      "payable": false,
      "stateMutability": "view",
      "type": "function"
    }
  ],
  "bytecode": "0x608060405260405161080838038061080883398101806040528101908080518201929190505050806000908051906020019061003c929190610043565b5050610110565b8280548282559060005260206000209081019282156100bc579160200282015b828111156100bb5782518260006101000a81548173ffffffffffffffffffffffffffffffffffffffff021916908373ffffffffffffffffffffffffffffffffffffffff16021790555091602001919060010190610063565b5b5090506100c991906100cd565b5090565b61010d91905b8082111561010957600081816101000a81549073ffffffffffffffffffffffffffffffffffffffff0219169055506001016100d3565b5090565b90565b6106e98061011f6000396000f300608060405260043610610078576000357c0100000000000000000000000000000000000000000000000000000000900463ffffffff1680633ccfd60b146100e55780636d9c6605146101145780639d19b2261461016b578063decebbce146101c6578063e33b7de314610221578063efeb5e581461024c575b7f27a391d95d67e3626574fb5fbe3532bb7366e9254957b1f0e840953c248b2aa83334604051808373ffffffffffffffffffffffffffffffffffffffff1673ffffffffffffffffffffffffffffffffffffffff1681526020018281526020019250505060405180910390a1005b3480156100f157600080fd5b506100fa6102b9565b604051808215151515815260200191505060405180910390f35b34801561012057600080fd5b50610155600480360381019080803573ffffffffffffffffffffffffffffffffffffffff1690602001909291905050506104bc565b6040518082815260200191505060405180910390f35b34801561017757600080fd5b506101ac600480360381019080803573ffffffffffffffffffffffffffffffffffffffff1690602001909291905050506104d4565b604051808215151515815260200191505060405180910390f35b3480156101d257600080fd5b50610207600480360381019080803573ffffffffffffffffffffffffffffffffffffffff169060200190929190505050610577565b604051808215151515815260200191505060405180910390f35b34801561022d57600080fd5b5061023661062c565b6040518082815260200191505060405180910390f35b34801561025857600080fd5b5061027760048036038101908080359060200190929190505050610632565b604051808273ffffffffffffffffffffffffffffffffffffffff1673ffffffffffffffffffffffffffffffffffffffff16815260200191505060405180910390f35b600080610350600260003373ffffffffffffffffffffffffffffffffffffffff1673ffffffffffffffffffffffffffffffffffffffff168152602001908152602001600020546103426000805490506103346001543073ffffffffffffffffffffffffffffffffffffffff163161067090919063ffffffff16565b61068e90919063ffffffff16565b6106a490919063ffffffff16565b90506103a481600260003373ffffffffffffffffffffffffffffffffffffffff1673ffffffffffffffffffffffffffffffffffffffff1681526020019081526020016000205461067090919063ffffffff16565b600260003373ffffffffffffffffffffffffffffffffffffffff1673ffffffffffffffffffffffffffffffffffffffff168152602001908152602001600020819055506103fc8160015461067090919063ffffffff16565b6001819055503373ffffffffffffffffffffffffffffffffffffffff166108fc829081150290604051600060405180830381858888f19350505050158015610448573d6000803e3d6000fd5b507f4ce7033d118120e254016dccf195288400b28fc8936425acd5f17ce2df3ab7083382604051808373ffffffffffffffffffffffffffffffffffffffff1673ffffffffffffffffffffffffffffffffffffffff1681526020018281526020019250505060405180910390a1600191505090565b60026020528060005260406000206000915090505481565b600080600090505b60008054905081101561056c578273ffffffffffffffffffffffffffffffffffffffff1660008281548110151561050f57fe5b9060005260206000200160009054906101000a900473ffffffffffffffffffffffffffffffffffffffff1673ffffffffffffffffffffffffffffffffffffffff16141561055f5760019150610571565b80806001019150506104dc565b600091505b50919050565b60008173ffffffffffffffffffffffffffffffffffffffff16633ccfd60b6040518163ffffffff167c0100000000000000000000000000000000000000000000000000000000028152600401602060405180830381600087803b1580156105dd57600080fd5b505af11580156105f1573d6000803e3d6000fd5b505050506040513d602081101561060757600080fd5b8101908080519060200190929190505050151561062357600080fd5b60019050919050565b60015481565b60008181548110151561064157fe5b906000526020600020016000915054906101000a900473ffffffffffffffffffffffffffffffffffffffff1681565b600080828401905083811015151561068457fe5b8091505092915050565b6000818381151561069b57fe5b04905092915050565b60008282111515156106b257fe5b8183039050929150505600a165627a7a72305820a8228a2605e88967d9eaa4df05496fe9b47f931102ce69eb30f966c10d0818760029",
  "source": "pragma solidity ^0.4.24;\n\nimport './SafeMath.sol';\nimport '../interfaces/PullPayment.sol';\n\n// @notice This contract allows someone to leave ETH for a beneficiary\n// @notice assumes each beneficiary receives equal amount\n// TODO: Test for rounding errors\ncontract EqualDistribution {\n  using SafeMath for uint;\n\n\n  address[] public beneficiaries;             // List of chosen beneficiaries\n\n\n  uint public totalReleased;               // Total WEI so far released to beneficiaries\n\n  mapping (address => uint) public amountRedeemed;    // Amount of WEI this address has already withdrawn from contract\n\n\n  // @notice constructor. Sets the beneficiaries and where the income to be distributed is coming from\n  // @param (address) _beneficiary = The ETH address of who is to receive the income. Could be a distribution contract.\n  constructor(address[] _beneficiaries)\n  public\n  payable {\n    beneficiaries = _beneficiaries;\n  }\n\n  // @notice allows beneficiaries to withdraw from contracts at different locations to be re-distributed here\n  // @dev can call withdraw() on any address if there are no parameters required. Fallback function will be triggered\n  // @param (address) _contractAddress = The address to call withdraw() on.\n  function getFunds(address _contractAddress)\n  external\n  returns (bool) {\n    require(PullPayment(_contractAddress).withdraw());   // TODO: Need to play with gas here\n    return true;\n  }\n\n  // @notice beneficiaries can withdraw their share of the income here\n  function withdraw()\n  external \n  returns (bool) { \n    uint amount = ((address(this).balance.add(totalReleased)).div(beneficiaries.length)).sub(amountRedeemed[msg.sender]); \n    amountRedeemed[msg.sender] = amountRedeemed[msg.sender].add(amount); \n    totalReleased = totalReleased.add(amount);\n    msg.sender.transfer(amount); \n    emit LogWithdraw(msg.sender, amount);  \n    return true; \n  }\n\n  // @notice fallback function. Accepts Ether and updates income balance\n  function () \n  payable { \n    emit LogPayment(msg.sender, msg.value);  \n  }   \n\n\n  ////////////////////////////////////////////////////////////////////////////////////////////////////////////////////////////////////////////\n  // Constants\n  ////////////////////////////////////////////////////////////////////////////////////////////////////////////////////////////////////////////\n\n  // @notice check if the address is one of the beneficiaries\n  function isBeneficiary(address _user)\n  public\n  view\n  returns (bool) {\n    for (uint i = 0; i < beneficiaries.length; i++){\n      if (beneficiaries[i] == _user) { return true; }\n    }\n    return false;\n  }\n\n  ////////////////////////////////////////////////////////////////////////////////////////////////////////////////////////////////////////////\n  // Events\n  ////////////////////////////////////////////////////////////////////////////////////////////////////////////////////////////////////////////\n\n  event LogPayment(address _sender, uint _amount);\n  event LogWithdraw(address _beneficiary, uint _amount); \n\n}\n",
  "sourcePath": "/home/dog/Code/mybit/petprojects/wills/contracts/EqualDistribution.sol",
  "compiler": {
    "name": "solc",
    "version": "0.4.24+commit.e67f0147.Emscripten.clang"
  },
  "schemaVersion": "2.0.0",
  "updatedAt": "2018-08-17T15:51:50.927Z"
}