{
  "contractName": "Wills",
  "abi": [
    {
      "constant": true,
      "inputs": [
        {
          "name": "",
          "type": "bytes32"
        }
      ],
      "name": "will",
      "outputs": [
        {
          "name": "creator",
          "type": "address"
        },
        {
          "name": "recipient",
          "type": "address"
        },
        {
          "name": "amount",
          "type": "uint256"
        },
        {
          "name": "blocksBetweenProofs",
          "type": "uint256"
        },
        {
          "name": "proofExpiration",
          "type": "uint256"
        },
        {
          "name": "revokeable",
          "type": "bool"
        }
      ],
      "payable": false,
      "stateMutability": "view",
      "type": "function"
    },
    {
      "constant": true,
      "inputs": [],
      "name": "owner",
      "outputs": [
        {
          "name": "",
          "type": "address"
        }
      ],
      "payable": false,
      "stateMutability": "view",
      "type": "function"
    },
    {
      "inputs": [],
      "payable": false,
      "stateMutability": "nonpayable",
      "type": "constructor"
    },
    {
      "anonymous": false,
      "inputs": [
        {
          "indexed": true,
          "name": "_creator",
          "type": "address"
        },
        {
          "indexed": false,
          "name": "_recipient",
          "type": "address"
        },
        {
          "indexed": false,
          "name": "_amount",
          "type": "uint256"
        },
        {
          "indexed": false,
          "name": "_id",
          "type": "bytes32"
        }
      ],
      "name": "LogWillCreated",
      "type": "event"
    },
    {
      "anonymous": false,
      "inputs": [
        {
          "indexed": true,
          "name": "_id",
          "type": "bytes32"
        },
        {
          "indexed": false,
          "name": "_recipient",
          "type": "address"
        },
        {
          "indexed": false,
          "name": "_amount",
          "type": "uint256"
        }
      ],
      "name": "LogWillClaimed",
      "type": "event"
    },
    {
      "constant": false,
      "inputs": [
        {
          "name": "_recipient",
          "type": "address"
        },
        {
          "name": "_blocksBetweenProofs",
          "type": "uint256"
        },
        {
          "name": "_revokeable",
          "type": "bool"
        }
      ],
      "name": "createWill",
      "outputs": [
        {
          "name": "id",
          "type": "bytes32"
        }
      ],
      "payable": true,
      "stateMutability": "payable",
      "type": "function"
    },
    {
      "constant": false,
      "inputs": [
        {
          "name": "_id",
          "type": "bytes32"
        }
      ],
      "name": "proveExistence",
      "outputs": [],
      "payable": false,
      "stateMutability": "nonpayable",
      "type": "function"
    },
    {
      "constant": false,
      "inputs": [
        {
          "name": "_id",
          "type": "bytes32"
        }
      ],
      "name": "claimWill",
      "outputs": [],
      "payable": false,
      "stateMutability": "nonpayable",
      "type": "function"
    },
    {
      "constant": false,
      "inputs": [
        {
          "name": "_id",
          "type": "bytes32"
        },
        {
          "name": "_newDesiredTime",
          "type": "uint256"
        }
      ],
      "name": "changeBlocksBetweenProofs",
      "outputs": [],
      "payable": false,
      "stateMutability": "nonpayable",
      "type": "function"
    },
    {
      "constant": true,
      "inputs": [
        {
          "name": "_id",
          "type": "bytes32"
        }
      ],
      "name": "getWill",
      "outputs": [
        {
          "name": "",
          "type": "address"
        },
        {
          "name": "",
          "type": "address"
        },
        {
          "name": "",
          "type": "uint256"
        },
        {
          "name": "",
          "type": "uint256"
        },
        {
          "name": "",
          "type": "uint256"
        },
        {
          "name": "",
          "type": "bool"
        }
      ],
      "payable": false,
      "stateMutability": "view",
      "type": "function"
    }
  ],
  "bytecode": "0x608060405234801561001057600080fd5b50336000806101000a81548173ffffffffffffffffffffffffffffffffffffffff021916908373ffffffffffffffffffffffffffffffffffffffff160217905550610c85806100606000396000f300608060405260043610610083576000357c0100000000000000000000000000000000000000000000000000000000900463ffffffff16806303c057621461008857806329042591146100f05780635a2f9b13146101b457806389ea3aa0146101e55780638da5cb5b146102a9578063b83375a614610300578063d2589bde14610331575b600080fd5b6100d2600480360381019080803573ffffffffffffffffffffffffffffffffffffffff1690602001909291908035906020019092919080351515906020019092919050505061036c565b60405180826000191660001916815260200191505060405180910390f35b3480156100fc57600080fd5b5061011f60048036038101908080356000191690602001909291905050506106ae565b604051808773ffffffffffffffffffffffffffffffffffffffff1673ffffffffffffffffffffffffffffffffffffffff1681526020018673ffffffffffffffffffffffffffffffffffffffff1673ffffffffffffffffffffffffffffffffffffffff16815260200185815260200184815260200183815260200182151515158152602001965050505050505060405180910390f35b3480156101c057600080fd5b506101e360048036038101908080356000191690602001909291905050506107d3565b005b3480156101f157600080fd5b5061021460048036038101908080356000191690602001909291905050506108bb565b604051808773ffffffffffffffffffffffffffffffffffffffff1673ffffffffffffffffffffffffffffffffffffffff1681526020018673ffffffffffffffffffffffffffffffffffffffff1673ffffffffffffffffffffffffffffffffffffffff16815260200185815260200184815260200183815260200182151515158152602001965050505050505060405180910390f35b3480156102b557600080fd5b506102be610944565b604051808273ffffffffffffffffffffffffffffffffffffffff1673ffffffffffffffffffffffffffffffffffffffff16815260200191505060405180910390f35b34801561030c57600080fd5b5061032f6004803603810190808035600019169060200190929190505050610969565b005b34801561033d57600080fd5b5061036a600480360381019080803560001916906020019092919080359060200190929190505050610b70565b005b6000808360008111151561037f57600080fd5b85600073ffffffffffffffffffffffffffffffffffffffff168173ffffffffffffffffffffffffffffffffffffffff16141515156103bc57600080fd5b338734604051602001808473ffffffffffffffffffffffffffffffffffffffff1673ffffffffffffffffffffffffffffffffffffffff166c010000000000000000000000000281526014018373ffffffffffffffffffffffffffffffffffffffff1673ffffffffffffffffffffffffffffffffffffffff166c0100000000000000000000000002815260140182815260200193505050506040516020818303038152906040526040518082805190602001908083835b6020831015156104975780518252602082019150602081019050602083039250610472565b6001836020036101000a03801982511681845116808217855250505050505090500191505060405180910390209350600073ffffffffffffffffffffffffffffffffffffffff1660016000866000191660001916815260200190815260200160002060000160009054906101000a900473ffffffffffffffffffffffffffffffffffffffff1673ffffffffffffffffffffffffffffffffffffffff1614151561053f57600080fd5b6001600085600019166000191681526020019081526020016000209250338360000160006101000a81548173ffffffffffffffffffffffffffffffffffffffff021916908373ffffffffffffffffffffffffffffffffffffffff160217905550868360010160006101000a81548173ffffffffffffffffffffffffffffffffffffffff021916908373ffffffffffffffffffffffffffffffffffffffff1602179055503483600201819055508583600301819055506106074387610c2290919063ffffffff16565b83600401819055503373ffffffffffffffffffffffffffffffffffffffff167f9efdc3c5dc72257e734471a0ad10bc35867dee468c3556ed3737954a7669509d883487604051808473ffffffffffffffffffffffffffffffffffffffff1673ffffffffffffffffffffffffffffffffffffffff1681526020018381526020018260001916600019168152602001935050505060405180910390a28393505050509392505050565b60008060008060008060016000886000191660001916815260200190815260200160002060000160009054906101000a900473ffffffffffffffffffffffffffffffffffffffff1660016000896000191660001916815260200190815260200160002060010160009054906101000a900473ffffffffffffffffffffffffffffffffffffffff16600160008a6000191660001916815260200190815260200160002060020154600160008b6000191660001916815260200190815260200160002060030154600160008c6000191660001916815260200190815260200160002060040154600160008d6000191660001916815260200190815260200160002060050160009054906101000a900460ff1695509550955095509550955091939550919395565b600060016000836000191660001916815260200190815260200160002060000160009054906101000a900473ffffffffffffffffffffffffffffffffffffffff168073ffffffffffffffffffffffffffffffffffffffff163373ffffffffffffffffffffffffffffffffffffffff1614151561084e57600080fd5b60016000846000191660001916815260200190815260200160002091508160030154610887438460040154610c4090919063ffffffff16565b10151561089357600080fd5b6108ae82600301548360040154610c2290919063ffffffff16565b8260040181905550505050565b60016020528060005260406000206000915090508060000160009054906101000a900473ffffffffffffffffffffffffffffffffffffffff16908060010160009054906101000a900473ffffffffffffffffffffffffffffffffffffffff16908060020154908060030154908060040154908060050160009054906101000a900460ff16905086565b6000809054906101000a900473ffffffffffffffffffffffffffffffffffffffff1681565b60008060016000846000191660001916815260200190815260200160002060010160009054906101000a900473ffffffffffffffffffffffffffffffffffffffff168073ffffffffffffffffffffffffffffffffffffffff163373ffffffffffffffffffffffffffffffffffffffff161415156109e557600080fd5b6001600085600019166000191681526020019081526020016000209250826004015443111515610a1457600080fd5b82600201549150600160008560001916600019168152602001908152602001600020600080820160006101000a81549073ffffffffffffffffffffffffffffffffffffffff02191690556001820160006101000a81549073ffffffffffffffffffffffffffffffffffffffff02191690556002820160009055600382016000905560048201600090556005820160006101000a81549060ff021916905550503373ffffffffffffffffffffffffffffffffffffffff166108fc839081150290604051600060405180830381858888f19350505050158015610af9573d6000803e3d6000fd5b5083600019167f6e4412e18250dc55718e20d62daa0afb74bad7fb4ceb239796d2caddf5ad79823384604051808373ffffffffffffffffffffffffffffffffffffffff1673ffffffffffffffffffffffffffffffffffffffff1681526020018281526020019250505060405180910390a250505050565b60016000836000191660001916815260200190815260200160002060000160009054906101000a900473ffffffffffffffffffffffffffffffffffffffff168073ffffffffffffffffffffffffffffffffffffffff163373ffffffffffffffffffffffffffffffffffffffff16141515610be957600080fd5b81600081111515610bf957600080fd5b826001600086600019166000191681526020019081526020016000206003018190555050505050565b6000808284019050838110151515610c3657fe5b8091505092915050565b6000828211151515610c4e57fe5b8183039050929150505600a165627a7a72305820705b7321269eb944fc048c567926925a07f37f86c1658e35114f79944630f6e60029",
  "source": "pragma solidity ^0.4.24;\n\nimport './SafeMath.sol'; \n\n// @notice This contract allows someone to leave ETH for another user in the case that they become unresponsive for x blocks\n// TODO: can structure this to have the recipient claim creators death, which starts the proofExpiration. Problem with this approach is that we need a good way to notify the creator. \ncontract Wills {\n  using SafeMath for uint; \n\n  address public owner;\n\n  mapping(bytes32 => Will) public will; \n\n  struct Will {\n    address creator;\n    address recipient; \n    uint amount;\n    uint blocksBetweenProofs; \n    uint proofExpiration; \n    bool revokeable; \n  }\n  \n\n  // @notice constructor. Sets msg.sender as owner and will amount = amount ETH sent in this call.\n  constructor()\n  public {\n    owner = msg.sender;\n  }\n\n  function createWill(address _recipient, uint _blocksBetweenProofs, bool _revokeable)\n  external \n  payable \n  notZero(_blocksBetweenProofs)\n  validAddress(_recipient)\n  returns (bytes32 id) { \n    id = keccak256(abi.encodePacked(msg.sender, _recipient, msg.value));  // Note user cannot create another will with the same amount + recipient\n    require(will[id].creator == address(0));   // Make sure struct isn't already created\n    Will storage thisWill = will[id];\n    thisWill.creator = msg.sender; \n    thisWill.recipient = _recipient; \n    thisWill.amount = msg.value;\n    thisWill.blocksBetweenProofs = _blocksBetweenProofs; \n    thisWill.proofExpiration = _blocksBetweenProofs.add(block.number); \n    emit LogWillCreated(msg.sender, _recipient, msg.value, id); \n    return id; \n  }\n\n  // TODO: Test that SafeMath throws in the case that creator tries to extend proofExpiration beyond one cycle (blocksBetweenProofs)\n  function proveExistence(bytes32 _id)\n  public\n  onlyCaller(will[_id].creator) {\n    Will storage thisWill = will[_id]; \n    require(thisWill.proofExpiration.sub(block.number) < thisWill.blocksBetweenProofs);  // Can only extend proofExpiration once\n    thisWill.proofExpiration = thisWill.proofExpiration.add(thisWill.blocksBetweenProofs); \n  }\n\n\n  function claimWill(bytes32 _id)\n  public \n  onlyCaller(will[_id].recipient) {\n    Will storage thisWill = will[_id]; \n    require(block.number > thisWill.proofExpiration);\n    uint amountWEI = thisWill.amount;\n    delete will[_id];\n    msg.sender.transfer(amountWEI);\n    emit LogWillClaimed(_id, msg.sender, amountWEI); \n  }\n\n\n  function changeBlocksBetweenProofs(bytes32 _id, uint _newDesiredTime)\n  external\n  onlyCaller(will[_id].creator) \n  notZero(_newDesiredTime) {\n      will[_id].blocksBetweenProofs = _newDesiredTime;\n  }\n\n  //////////////////////////////////////////////////////////////////////////////////////////////////////////////////\n  //                                            View functions \n  //////////////////////////////////////////////////////////////////////////////////////////////////////////////////\n\n  function getWill(bytes32 _id)\n  public \n  view\n  returns (address, address, uint, uint, uint, bool) { \n    return (will[_id].creator, will[_id].recipient, will[_id].amount, will[_id].blocksBetweenProofs, will[_id].proofExpiration, will[_id].revokeable); \n  }\n\n  //////////////////////////////////////////////////////////////////////////////////////////////////////////////////\n  //                                            Modifiers\n  //////////////////////////////////////////////////////////////////////////////////////////////////////////////////\n\n  // @notice reverts if msg.sender isn't the specified caller\n  modifier onlyCaller(address _caller) {\n    require(msg.sender == _caller);\n    _;\n  }\n\n  // @notice reverts if will is not revokeable\n  modifier isRevokeable(bytes32 _id) { \n    require(will[_id].revokeable); \n    _;\n  }\n\n  // @notice reverts if integer is 0\n  modifier notZero(uint _number) { \n    require(_number > 0); \n    _;\n  }\n\n  modifier validAddress(address _addr) { \n    require(_addr != address(0)); \n    _;\n  }\n\n  //////////////////////////////////////////////////////////////////////////////////////////////////////////////////\n  //                                            Events\n  //////////////////////////////////////////////////////////////////////////////////////////////////////////////////\n\n  event LogWillCreated(address indexed _creator, address _recipient, uint _amount, bytes32 _id); \n  event LogWillClaimed(bytes32 indexed _id, address _recipient, uint _amount); \n\n}\n",
  "sourcePath": "/home/dog/Code/mybit/petprojects/wills/contracts/Will.sol",
  "compiler": {
    "name": "solc",
    "version": "0.4.24+commit.e67f0147.Emscripten.clang"
  },
  "schemaVersion": "2.0.0",
  "updatedAt": "2018-08-17T15:51:50.930Z"
}